Class:        Object                                                                                               - instance: 0x0000000006FF0D00
Class:        Interface                                                                                            - instance: 0x0000000006FFA180
Class:        GCObjectReferencer                                                                                   - instance: 0x000000000FD85E00
Class:        TextBuffer                                                                                           - instance: 0x000000000FD85BC0
Class:        Field                                                                                                - instance: 0x000000000FD85980
Class:        Struct                                                                                               - instance: 0x000000000FD85740
Class:        ScriptStruct                                                                                         - instance: 0x000000000FD85500
Class:        Package                                                                                              - instance: 0x000000000FD85080
Class:        Class                                                                                                - instance: 0x000000000FD852C0
Class:        Function                                                                                             - instance: 0x000000000FD84E40
Class:        DelegateFunction                                                                                     - instance: 0x000000000FD84C00
Class:        DynamicClass                                                                                         - instance: 0x000000000FD8DE40
Class:        PackageMap                                                                                           - instance: 0x000000000FD8DC00
Class:        Enum                                                                                                 - instance: 0x000000000FD8D9C0
Class:        Property                                                                                             - instance: 0x000000000FD8D540
Class:        EnumProperty                                                                                         - instance: 0x000000000FD8D780
Class:        LinkerPlaceholderClass                                                                               - instance: 0x000000000FD8D300
Class:        LinkerPlaceholderExportObject                                                                        - instance: 0x000000000FD8D0C0
Class:        LinkerPlaceholderFunction                                                                            - instance: 0x000000000FD8CE80
Class:        MetaData                                                                                             - instance: 0x000000000FD8CC40
Class:        ObjectRedirector                                                                                     - instance: 0x000000000FD8CA00
Class:        ArrayProperty                                                                                        - instance: 0x000000000FD8C7C0
Class:        ObjectPropertyBase                                                                                   - instance: 0x000000000FD8C580
Class:        BoolProperty                                                                                         - instance: 0x000000000FD8C340
Class:        NumericProperty                                                                                      - instance: 0x000000000FD8BEC0
Class:        ByteProperty                                                                                         - instance: 0x000000000FD8C100
Class:        ObjectProperty                                                                                       - instance: 0x000000000FD8BA40
Class:        ClassProperty                                                                                        - instance: 0x000000000FD8BC80
Class:        DelegateProperty                                                                                     - instance: 0x000000000FD8B800
Class:        DoubleProperty                                                                                       - instance: 0x000000000FD8B5C0
Class:        FloatProperty                                                                                        - instance: 0x000000000FD8B380
Class:        IntProperty                                                                                          - instance: 0x000000000FD8B140
Class:        Int16Property                                                                                        - instance: 0x000000000FD8AF00
Class:        Int64Property                                                                                        - instance: 0x000000000FD8ACC0
Class:        Int8Property                                                                                         - instance: 0x000000000FD8AA80
Class:        InterfaceProperty                                                                                    - instance: 0x000000000FD8A840
Class:        LazyObjectProperty                                                                                   - instance: 0x000000000FD8A600
Class:        MapProperty                                                                                          - instance: 0x000000000FD8A3C0
Class:        MulticastDelegateProperty                                                                            - instance: 0x000000000FD8A180
Class:        NameProperty                                                                                         - instance: 0x000000000FD89F40
Class:        SetProperty                                                                                          - instance: 0x000000000FD89D00
Class:        SoftObjectProperty                                                                                   - instance: 0x000000000FD89880
Class:        SoftClassProperty                                                                                    - instance: 0x000000000FD89AC0
Class:        StrProperty                                                                                          - instance: 0x000000000FD89640
Class:        StructProperty                                                                                       - instance: 0x000000000FD8FDC0
Class:        UInt16Property                                                                                       - instance: 0x000000000FD8FB80
Class:        UInt32Property                                                                                       - instance: 0x000000000FD8F940
Class:        UInt64Property                                                                                       - instance: 0x000000000FD8F700
Class:        WeakObjectProperty                                                                                   - instance: 0x000000000FD8F4C0
Class:        TextProperty                                                                                         - instance: 0x000000000FD8F280
ScriptStruct: JoinabilitySettings                                                                                  - instance: 0x000000001ECEEA20
ScriptStruct: UniqueNetIdWrapper                                                                                   - instance: 0x000000001ECEEB60
ScriptStruct: Guid                                                                                                 - instance: 0x000000001ECEE660
ScriptStruct: Vector                                                                                               - instance: 0x000000001ECEE840
ScriptStruct: Vector4                                                                                              - instance: 0x000000001ECEE520
ScriptStruct: Vector2D                                                                                             - instance: 0x000000001ECEE5C0
ScriptStruct: TwoVectors                                                                                           - instance: 0x000000001ECEE3E0
ScriptStruct: Plane                                                                                                - instance: 0x000000001ECEE480
ScriptStruct: Rotator                                                                                              - instance: 0x000000001ECEE340
ScriptStruct: Quat                                                                                                 - instance: 0x000000001ECEFD80
ScriptStruct: PackedNormal                                                                                         - instance: 0x000000001ECEFF60
ScriptStruct: PackedRGB10A2N                                                                                       - instance: 0x000000001ECEFEC0
ScriptStruct: PackedRGBA16N                                                                                        - instance: 0x000000001ECEFE20
ScriptStruct: IntPoint                                                                                             - instance: 0x000000001ECEFCE0
ScriptStruct: IntVector                                                                                            - instance: 0x000000001ECEFBA0
ScriptStruct: Color                                                                                                - instance: 0x000000001ECEFC40
ScriptStruct: LinearColor                                                                                          - instance: 0x000000001ECEFB00
ScriptStruct: Box                                                                                                  - instance: 0x000000001ECEF9C0
ScriptStruct: Box2D                                                                                                - instance: 0x000000001ECEF920
ScriptStruct: BoxSphereBounds                                                                                      - instance: 0x000000001ECEF7E0
ScriptStruct: OrientedBox                                                                                          - instance: 0x000000001ECEFA60
ScriptStruct: Matrix                                                                                               - instance: 0x000000001ECEF880
ScriptStruct: InterpCurvePointFloat                                                                                - instance: 0x000000001EDB1460
ScriptStruct: InterpCurveFloat                                                                                     - instance: 0x000000001EDB13C0
ScriptStruct: InterpCurvePointVector2D                                                                             - instance: 0x000000001EDB1320
ScriptStruct: InterpCurveVector2D                                                                                  - instance: 0x000000001ECED6C0
ScriptStruct: InterpCurvePointVector                                                                               - instance: 0x000000001ECED620
ScriptStruct: InterpCurveVector                                                                                    - instance: 0x000000001ECE9D40
ScriptStruct: InterpCurvePointQuat                                                                                 - instance: 0x000000001ECE9FC0
ScriptStruct: InterpCurveQuat                                                                                      - instance: 0x000000001ECE9B60
ScriptStruct: InterpCurvePointTwoVectors                                                                           - instance: 0x000000001ECE8080
ScriptStruct: InterpCurveTwoVectors                                                                                - instance: 0x000000001ECE7FE0
ScriptStruct: InterpCurvePointLinearColor                                                                          - instance: 0x000000001ECEA4C0
ScriptStruct: InterpCurveLinearColor                                                                               - instance: 0x000000001ECEA420
ScriptStruct: Transform                                                                                            - instance: 0x000000001ECE7F40
ScriptStruct: RandomStream                                                                                         - instance: 0x000000001ECE7D60
ScriptStruct: DateTime                                                                                             - instance: 0x000000001ECE7E00
ScriptStruct: FrameNumber                                                                                          - instance: 0x000000001ECE7C20
ScriptStruct: FrameRate                                                                                            - instance: 0x000000001ECE7CC0
ScriptStruct: FrameTime                                                                                            - instance: 0x000000001ECE7EA0
ScriptStruct: QualifiedFrameTime                                                                                   - instance: 0x000000001EDB11E0
ScriptStruct: Timecode                                                                                             - instance: 0x000000001EDB1280
ScriptStruct: Timespan                                                                                             - instance: 0x000000001EDB10A0
ScriptStruct: SoftObjectPath                                                                                       - instance: 0x000000001ECEAB00
ScriptStruct: SoftClassPath                                                                                        - instance: 0x000000001ECEABA0
ScriptStruct: PrimaryAssetType                                                                                     - instance: 0x000000001ECEA9C0
ScriptStruct: PrimaryAssetId                                                                                       - instance: 0x000000001ECEA7E0
ScriptStruct: FallbackStruct                                                                                       - instance: 0x000000001ECEA880
ScriptStruct: FloatRangeBound                                                                                      - instance: 0x000000001ECEA6A0
ScriptStruct: FloatRange                                                                                           - instance: 0x000000001ECEA740
ScriptStruct: Int32RangeBound                                                                                      - instance: 0x000000001ECEA920
ScriptStruct: Int32Range                                                                                           - instance: 0x000000001ECEA600
ScriptStruct: FloatInterval                                                                                        - instance: 0x000000001ECED800
ScriptStruct: Int32Interval                                                                                        - instance: 0x000000001ECED8A0
ScriptStruct: PolyglotTextData                                                                                     - instance: 0x000000001ECED940
ScriptStruct: AutomationEvent                                                                                      - instance: 0x000000001ECED760
ScriptStruct: AutomationExecutionEntry                                                                             - instance: 0x000000001ECEA560
ScriptStruct: StatColorMapEntry                                                                                    - instance: 0x000000001F385880
ScriptStruct: StatColorMapping                                                                                     - instance: 0x000000001F385920
ScriptStruct: GameNameRedirect                                                                                     - instance: 0x000000001F385B00
ScriptStruct: ClassRedirect                                                                                        - instance: 0x000000001F385BA0
ScriptStruct: PluginRedirect                                                                                       - instance: 0x000000001F385CE0
ScriptStruct: StructRedirect                                                                                       - instance: 0x000000001F385C40
ScriptStruct: DirectoryPath                                                                                        - instance: 0x000000002012D120
ScriptStruct: DropNoteInfo                                                                                         - instance: 0x000000001F3859C0
ScriptStruct: NetDriverDefinition                                                                                  - instance: 0x000000001F38F060
Class:        Engine                                                                                               - instance: 0x0000000006FFCE80
Class:        ScriptViewportClient                                                                                 - instance: 0x0000000006FFCA00
ScriptStruct: DebugDisplayProperty                                                                                 - instance: 0x000000001F386460
Class:        GameViewportClient                                                                                   - instance: 0x0000000006FFCC40
Class:        BlueprintFunctionLibrary                                                                             - instance: 0x0000000006FFC580
ScriptStruct: TickFunction                                                                                         - instance: 0x000000001F59C540
ScriptStruct: ActorTickFunction                                                                                    - instance: 0x00000000201281C0
ScriptStruct: RsDistanceReducedTickingModifier                                                                     - instance: 0x000000001F59C5E0
ScriptStruct: RepMovement                                                                                          - instance: 0x0000000020128120
ScriptStruct: Vector_NetQuantize100                                                                                - instance: 0x0000000020128080
ScriptStruct: RepAttachment                                                                                        - instance: 0x0000000020127FE0
ScriptStruct: Vector_NetQuantize                                                                                   - instance: 0x000000001F59C900
ScriptStruct: Vector_NetQuantizeNormal                                                                             - instance: 0x000000001F59C860
ScriptStruct: HitResult                                                                                            - instance: 0x000000001F59C9A0
Class:        Actor                                                                                                - instance: 0x0000000006FFBA40
Class:        Pawn                                                                                                 - instance: 0x0000000006FFBC80
ScriptStruct: BasedMovementInfo                                                                                    - instance: 0x000000001F59BC80
ScriptStruct: RootMotionSourceSettings                                                                             - instance: 0x000000001F59BFA0
ScriptStruct: Vector_NetQuantize10                                                                                 - instance: 0x000000001F59C040
ScriptStruct: RootMotionSourceGroup                                                                                - instance: 0x000000001F59C0E0
ScriptStruct: RootMotionMovementParams                                                                             - instance: 0x000000001F59BDC0
ScriptStruct: RepRootMotionMontage                                                                                 - instance: 0x000000001F59BF00
ScriptStruct: SimulatedRootMotionReplicatedMove                                                                    - instance: 0x000000001F59BE60
Class:        Character                                                                                            - instance: 0x0000000006FFBEC0
Class:        DataAsset                                                                                            - instance: 0x0000000006FFB380
ScriptStruct: ActorComponentTickFunction                                                                           - instance: 0x000000001F59C4A0
ScriptStruct: SimpleMemberReference                                                                                - instance: 0x000000001F59C680
Class:        ActorComponent                                                                                       - instance: 0x0000000006FFA600
Class:        MovementComponent                                                                                    - instance: 0x0000000006FFA840
ScriptStruct: MovementProperties                                                                                   - instance: 0x000000001F38ACE0
ScriptStruct: NavAgentProperties                                                                                   - instance: 0x000000001F38AC40
Class:        NavMovementComponent                                                                                 - instance: 0x0000000006FFAA80
Class:        PawnMovementComponent                                                                                - instance: 0x0000000006FFACC0
ScriptStruct: FindFloorResult                                                                                      - instance: 0x000000001F384840
ScriptStruct: NavAvoidanceMask                                                                                     - instance: 0x000000001F38AD80
ScriptStruct: CharacterMovementComponentPostPhysicsTickFunction                                                    - instance: 0x000000001F3848E0
Class:        CharacterMovementComponent                                                                           - instance: 0x0000000006FFAF00
Class:        SceneComponent                                                                                       - instance: 0x0000000006FFF700
ScriptStruct: LightingChannels                                                                                     - instance: 0x000000001F5906A0
ScriptStruct: RsBitfield_NavPermissionFlags                                                                        - instance: 0x000000001F382B80
ScriptStruct: RsBitfield_NavPermissionDetailFlags                                                                  - instance: 0x000000001F382C20
ScriptStruct: CollisionResponseContainer                                                                           - instance: 0x000000001F382CC0
ScriptStruct: ResponseChannel                                                                                      - instance: 0x000000001F382D60
ScriptStruct: CollisionResponse                                                                                    - instance: 0x000000001F382E00
ScriptStruct: WalkableSlopeOverride                                                                                - instance: 0x000000001F382EA0
ScriptStruct: BodyInstance                                                                                         - instance: 0x000000001F382F40
ScriptStruct: PrimitiveComponentPostPhysicsTickFunction                                                            - instance: 0x000000001F385560
Class:        PrimitiveComponent                                                                                   - instance: 0x0000000006FFF940
Class:        ShapeComponent                                                                                       - instance: 0x0000000006FFFB80
Class:        CapsuleComponent                                                                                     - instance: 0x0000000006FFFDC0
Class:        MeshComponent                                                                                        - instance: 0x0000000006FFEE00
ScriptStruct: SkelMeshComponentLODInfo                                                                             - instance: 0x000000001F2B0CE0
ScriptStruct: SkelMeshSkinWeightInfo                                                                               - instance: 0x000000001F2B0C40
Class:        SkinnedMeshComponent                                                                                 - instance: 0x0000000006FFF040
ScriptStruct: SingleAnimationPlayData                                                                              - instance: 0x000000001F38E5C0
ScriptStruct: PerPlatformInt                                                                                       - instance: 0x000000001EDB7B80
ScriptStruct: PoseSnapshot                                                                                         - instance: 0x000000001EDBD440
Class:        SkeletalMeshComponent                                                                                - instance: 0x0000000006FFF280
ScriptStruct: AnimNotifyEventReference                                                                             - instance: 0x000000001F380BA0
ScriptStruct: AnimNotifyArray                                                                                      - instance: 0x000000001F380C40
ScriptStruct: AnimNotifyQueue                                                                                      - instance: 0x000000001F380CE0
ScriptStruct: AnimLinkableElement                                                                                  - instance: 0x000000002012FC40
ScriptStruct: AnimNotifyEvent                                                                                      - instance: 0x000000002012FB00
ScriptStruct: MarkerSyncAnimPosition                                                                               - instance: 0x000000002012F2E0
Class:        AnimInstance                                                                                         - instance: 0x0000000006FFE980
ScriptStruct: GeomSelection                                                                                        - instance: 0x000000001F385240
Class:        Brush                                                                                                - instance: 0x000000000C1E01C0
Class:        Volume                                                                                               - instance: 0x000000000C1E0400
ScriptStruct: MeshUVChannelInfo                                                                                    - instance: 0x000000001F384520
ScriptStruct: SkeletalMaterial                                                                                     - instance: 0x000000001F38E520
ScriptStruct: BoneMirrorInfo                                                                                       - instance: 0x000000001F38FD80
ScriptStruct: PerPlatformFloat                                                                                     - instance: 0x000000001EDB79A0
ScriptStruct: SkeletalMeshOptimizationSettings                                                                     - instance: 0x000000001F38FF60
ScriptStruct: BoneReference                                                                                        - instance: 0x000000001F59AE20
ScriptStruct: SkeletalMeshLODInfo                                                                                  - instance: 0x000000001F38E340
ScriptStruct: SkeletalMeshSamplingRegionMaterialFilter                                                             - instance: 0x000000001F2B1320
ScriptStruct: SkeletalMeshSamplingRegionBoneFilter                                                                 - instance: 0x000000001F2B13C0
ScriptStruct: SkeletalMeshSamplingRegion                                                                           - instance: 0x000000001F2B1460
ScriptStruct: SkeletalMeshSamplingLODBuiltData                                                                     - instance: 0x000000001F38F7E0
ScriptStruct: SkeletalMeshSamplingRegionBuiltData                                                                  - instance: 0x000000001F38F880
ScriptStruct: SkeletalMeshSamplingBuiltData                                                                        - instance: 0x000000001F38F920
ScriptStruct: SkeletalMeshSamplingInfo                                                                             - instance: 0x000000001F38F9C0
Class:        SkeletalMesh                                                                                         - instance: 0x000000000C1E8B00
ScriptStruct: TireFrictionScalePair                                                                                - instance: 0x000000001F38C220
Class:        PhysicalMaterial                                                                                     - instance: 0x000000000C1E8200
ScriptStruct: LevelCollection                                                                                      - instance: 0x000000001F2B3800
ScriptStruct: PSCPoolElem                                                                                          - instance: 0x000000001F2B3300
ScriptStruct: PSCPool                                                                                              - instance: 0x000000001F2B33A0
ScriptStruct: WorldPSCPool                                                                                         - instance: 0x000000001F2B3440
Class:        World                                                                                                - instance: 0x000000000C1EC7C0
Class:        InterpTrack                                                                                          - instance: 0x000000000C1EB5C0
Class:        InterpTrackVectorBase                                                                                - instance: 0x000000000C1EB800
Class:        InterpTrackFloatBase                                                                                 - instance: 0x000000000C1EB140
Class:        InterpTrackInst                                                                                      - instance: 0x000000000C1EACC0
Class:        AnimNotify                                                                                           - instance: 0x000000000C1EFDC0
Class:        AnimNotifyState                                                                                      - instance: 0x000000000C1EF4C0
Class:        AnimNotifyState_Trail                                                                                - instance: 0x000000000C1EF040
Class:        Commandlet                                                                                           - instance: 0x000000000C1EE980
Class:        BlueprintAsyncActionBase                                                                             - instance: 0x000000000FCA25C0
Class:        Controller                                                                                           - instance: 0x000000000FCA0640
Class:        AISystemBase                                                                                         - instance: 0x000000000FCA91C0
Class:        SphereComponent                                                                                      - instance: 0x000000000FCA8B00
Class:        DeveloperSettings                                                                                    - instance: 0x000000000FCAF940
Class:        RsConditionalAnimNotify                                                                              - instance: 0x000000000FCB3C40
Class:        RsConditionalTargetAnimNotify                                                                        - instance: 0x000000000FCB3100
Class:        RsConditionalAnimNotifyState                                                                         - instance: 0x000000000FCB1CC0
Class:        RsConditionalTargetAnimNotifyState                                                                   - instance: 0x000000000FCB0D00
ScriptStruct: WeightedBlendable                                                                                    - instance: 0x000000001EDB1F00
ScriptStruct: WeightedBlendables                                                                                   - instance: 0x000000001EDB1E60
ScriptStruct: PostProcessSettings                                                                                  - instance: 0x000000001EDB1DC0
ScriptStruct: MinimalViewInfo                                                                                      - instance: 0x000000001F384B60
ScriptStruct: CameraCacheEntry                                                                                     - instance: 0x000000001F38BD20
ScriptStruct: TViewTarget                                                                                          - instance: 0x000000001F38BDC0
Class:        PlayerCameraManager                                                                                  - instance: 0x000000000FCC8B00
Class:        GameInstance                                                                                         - instance: 0x000000000FCCBC80
Class:        Info                                                                                                 - instance: 0x000000000FCCB380
Class:        GameModeBase                                                                                         - instance: 0x000000000FCCB5C0
Class:        GameMode                                                                                             - instance: 0x000000000FCCB800
Class:        PhysicsCollisionHandler                                                                              - instance: 0x000000000FCCAF00
Class:        GameStateBase                                                                                        - instance: 0x000000000FCCA3C0
Class:        GameState                                                                                            - instance: 0x000000000FCCA600
Class:        NavigationSystemBase                                                                                 - instance: 0x000000000FCD88C0
ScriptStruct: ActiveForceFeedbackEffect                                                                            - instance: 0x000000001F386780
ScriptStruct: ViewTargetTransitionParams                                                                           - instance: 0x000000001F38BE60
ScriptStruct: UpdateLevelVisibilityLevelInfo                                                                       - instance: 0x000000001F38BC80
ScriptStruct: UniqueNetIdRepl                                                                                      - instance: 0x000000001EDB5560
ScriptStruct: LatentActionInfo                                                                                     - instance: 0x0000000020127CC0
Class:        PlayerController                                                                                     - instance: 0x000000000FCD64C0
Class:        PlayerState                                                                                          - instance: 0x000000000FCD6040
Class:        SaveGame                                                                                             - instance: 0x000000000FCDD780
Class:        RsSaveGameManagerBase                                                                                - instance: 0x000000000FCDD300
Class:        RsSignificanceUtils                                                                                  - instance: 0x000000000FCDCC40
ScriptStruct: PaintedVertex                                                                                        - instance: 0x000000001F2B2220
ScriptStruct: StaticMeshComponentLODInfo                                                                           - instance: 0x000000001F2B22C0
ScriptStruct: StreamingTextureBuildInfo                                                                            - instance: 0x000000001F2B1AA0
ScriptStruct: LightmassPrimitiveSettings                                                                           - instance: 0x000000001F387040
Class:        StaticMeshComponent                                                                                  - instance: 0x000000000FCE4540
Class:        OnlineBlueprintCallProxyBase                                                                         - instance: 0x000000000FCE1A80
Class:        Player                                                                                               - instance: 0x000000000FCE8B00
Class:        NetConnection                                                                                        - instance: 0x000000000FCE8D40
Class:        NetDriver                                                                                            - instance: 0x000000000FCE8680
Class:        OnlineEngineInterface                                                                                - instance: 0x000000000FCE6DC0
Class:        OnlineSession                                                                                        - instance: 0x000000000FCE6700
ScriptStruct: AudioComponentParam                                                                                  - instance: 0x000000001F3820E0
ScriptStruct: KeyHandleMap                                                                                         - instance: 0x000000001F59A1A0
ScriptStruct: IndexedCurve                                                                                         - instance: 0x000000001F59A100
ScriptStruct: RichCurveKey                                                                                         - instance: 0x000000001F59A2E0
ScriptStruct: RichCurve                                                                                            - instance: 0x000000001F59A240
ScriptStruct: RuntimeFloatCurve                                                                                    - instance: 0x000000001F59A060
ScriptStruct: BaseAttenuationSettings                                                                              - instance: 0x000000001F382180
ScriptStruct: SoundAttenuationPluginSettings                                                                       - instance: 0x000000001F2B0880
ScriptStruct: SoundAttenuationSettings                                                                             - instance: 0x000000001F2B0920
Class:        AudioComponent                                                                                       - instance: 0x000000000FCF49C0
Class:        AssetImportData                                                                                      - instance: 0x000000000FCF3340
Class:        AssetUserData                                                                                        - instance: 0x000000000FCF1A80
Class:        Texture                                                                                              - instance: 0x000000000FCF5500
Class:        AssetManager                                                                                         - instance: 0x000000000FD22C80
Class:        CheatManager                                                                                         - instance: 0x000000000FD26040
Class:        DebugCameraController                                                                                - instance: 0x000000000FD252C0
ScriptStruct: DebugTextInfo                                                                                        - instance: 0x000000001F3863C0
Class:        HUD                                                                                                  - instance: 0x000000000FD24C00
Class:        DebugCameraHUD                                                                                       - instance: 0x000000000FD24E40
Class:        BoxComponent                                                                                         - instance: 0x000000000FD2CC40
Class:        GameUserSettings                                                                                     - instance: 0x000000000FD2AA80
Class:        StaticMeshActor                                                                                      - instance: 0x000000000FD29AC0
Class:        CameraActor                                                                                          - instance: 0x000000000FD2E500
Class:        ProjectileMovementComponent                                                                          - instance: 0x000000000FD83A00
Class:        NavigationObjectBase                                                                                 - instance: 0x000000000FD87FC0
Class:        PlayerStart                                                                                          - instance: 0x000000000FD88200
Class:        RsStreamingAreaPlayerStart                                                                           - instance: 0x000000000FD88440
ScriptStruct: InstancedStaticMeshInstanceData                                                                      - instance: 0x000000001F388260
ScriptStruct: InstancedStaticMeshOcclusionCluster                                                                  - instance: 0x000000001F388440
ScriptStruct: InstancedStaticMeshMappingInfo                                                                       - instance: 0x000000001F388300
Class:        InstancedStaticMeshComponent                                                                         - instance: 0x000000000FD90400
Class:        HierarchicalInstancedStaticMeshComponent                                                             - instance: 0x000000000FD90640
ScriptStruct: LightmassMaterialInterfaceSettings                                                                   - instance: 0x000000001F38B6E0
ScriptStruct: MaterialTextureInfo                                                                                  - instance: 0x000000001F38B780
Class:        MaterialInterface                                                                                    - instance: 0x000000000FD95BC0
ScriptStruct: MaterialParameterInfo                                                                                - instance: 0x000000001F389200
ScriptStruct: ScalarParameterValue                                                                                 - instance: 0x000000001F38B960
ScriptStruct: VectorParameterValue                                                                                 - instance: 0x000000001F3890C0
ScriptStruct: TextureParameterValue                                                                                - instance: 0x000000001F389160
ScriptStruct: FontParameterValue                                                                                   - instance: 0x000000001F3892A0
ScriptStruct: MaterialInstanceBasePropertyOverrides                                                                - instance: 0x000000001F38B820
ScriptStruct: StaticSwitchParameter                                                                                - instance: 0x000000001F2B1F00
ScriptStruct: StaticComponentMaskParameter                                                                         - instance: 0x000000001F2B1FA0
ScriptStruct: StaticTerrainLayerWeightParameter                                                                    - instance: 0x000000001F2B2040
ScriptStruct: MaterialLayersFunctions                                                                              - instance: 0x000000001F38B640
ScriptStruct: StaticMaterialLayersParameter                                                                        - instance: 0x000000001F2B20E0
ScriptStruct: StaticParameterSet                                                                                   - instance: 0x000000001F2B2180
Class:        MaterialInstance                                                                                     - instance: 0x000000000FD95E00
Class:        MaterialInstanceConstant                                                                             - instance: 0x000000000FD96040
Class:        MaterialExpression                                                                                   - instance: 0x000000000FD9D9C0
Class:        MaterialExpressionCustomOutput                                                                       - instance: 0x000000000FD9DC00
Class:        EngineCustomTimeStep                                                                                 - instance: 0x000000000FD9C7C0
ScriptStruct: BlueprintComponentChangedPropertyInfo                                                                - instance: 0x000000001F383300
ScriptStruct: BlueprintCookedComponentInstancingData                                                               - instance: 0x000000001F3833A0
Class:        BlueprintGeneratedClass                                                                              - instance: 0x000000000FDB0D00
Class:        CameraComponent                                                                                      - instance: 0x000000000FDB7B40
Class:        SoundEffectPreset                                                                                    - instance: 0x000000000FDBCC40
Class:        SoundEffectSubmixPreset                                                                              - instance: 0x000000000FDBCE80
ScriptStruct: SoundConcurrencySettings                                                                             - instance: 0x000000001F2B0600
ScriptStruct: SoundSubmixSendInfo                                                                                  - instance: 0x000000001F2B0060
ScriptStruct: SoundSourceBusSendInfo                                                                               - instance: 0x000000001F2B0100
Class:        SoundBase                                                                                            - instance: 0x000000000FDBBEC0
ScriptStruct: SubtitleCue                                                                                          - instance: 0x000000001F59C400
ScriptStruct: LocalizedSubtitle                                                                                    - instance: 0x000000001F386DC0
Class:        SoundWave                                                                                            - instance: 0x000000000FDBC100
Class:        SoundWaveProcedural                                                                                  - instance: 0x000000000FDBC340
Class:        BlueprintCore                                                                                        - instance: 0x000000000FDBA840
Class:        Blueprint                                                                                            - instance: 0x000000000FDBAA80
Class:        Model                                                                                                - instance: 0x000000000FDC4780
Class:        Channel                                                                                              - instance: 0x000000000FDC4300
Class:        ActorChannel                                                                                         - instance: 0x000000000FDC4540
Class:        AnimationAsset                                                                                       - instance: 0x000000000FDC3A00
ScriptStruct: InterpolationParameter                                                                               - instance: 0x000000001F383A80
ScriptStruct: PerBoneInterpolation                                                                                 - instance: 0x000000001F383DA0
ScriptStruct: BlendSample                                                                                          - instance: 0x000000001F383BC0
ScriptStruct: EditorElement                                                                                        - instance: 0x000000001F383C60
ScriptStruct: BlendParameter                                                                                       - instance: 0x000000001F383B20
Class:        BlendSpaceBase                                                                                       - instance: 0x000000000FDC3C40
Class:        BlendSpace                                                                                           - instance: 0x000000000FDC3E80
Class:        AimOffsetBlendSpace                                                                                  - instance: 0x000000000FDC40C0
Class:        BlendSpace1D                                                                                         - instance: 0x000000000FDC3580
Class:        AimOffsetBlendSpace1D                                                                                - instance: 0x000000000FDC37C0
Class:        AmbientSound                                                                                         - instance: 0x000000000FDC3340
ScriptStruct: RsAnimationCompressionParametersForPerTrackAlgorithm                                                 - instance: 0x000000002012EF20
ScriptStruct: RsAnimationCompressionParametersForRemoveLinearKeysAlgorithm                                         - instance: 0x000000002012EFC0
ScriptStruct: RsAnimationCompressionParametersForACLAlgorithm                                                      - instance: 0x000000002012F060
ScriptStruct: RsAnimationCompressionCommandletAlgorithmParametersProfile                                           - instance: 0x000000002012F100
ScriptStruct: RsAnimationCompressionCommandletGroup                                                                - instance: 0x000000002012F1A0
Class:        AnimationSettings                                                                                    - instance: 0x000000000FDC3100
ScriptStruct: AnimGroupInfo                                                                                        - instance: 0x000000002012EA20
Class:        AnimBlueprint                                                                                        - instance: 0x000000000FDC2EC0
ScriptStruct: BakedStateExitTransition                                                                             - instance: 0x000000001F380100
ScriptStruct: BakedAnimationState                                                                                  - instance: 0x000000001F3801A0
ScriptStruct: AnimationStateBase                                                                                   - instance: 0x000000001F3802E0
ScriptStruct: AnimationTransitionBetweenStates                                                                     - instance: 0x000000001F380240
ScriptStruct: BakedAnimationStateMachine                                                                           - instance: 0x000000001F380380
Class:        AnimBlueprintGeneratedClass                                                                          - instance: 0x000000000FDC2C80
Class:        AnimClassData                                                                                        - instance: 0x000000000FDC2A40
Class:        AnimClassInterface                                                                                   - instance: 0x000000000FDC2800
ScriptStruct: SmartName                                                                                            - instance: 0x000000002012E480
ScriptStruct: AnimCurveBase                                                                                        - instance: 0x000000002012E520
ScriptStruct: FloatCurve                                                                                           - instance: 0x000000002012E3E0
ScriptStruct: RawCurveTracks                                                                                       - instance: 0x000000002012E5C0
Class:        AnimSequenceBase                                                                                     - instance: 0x000000000FDC2140
Class:        AnimCompositeBase                                                                                    - instance: 0x000000000FDC2380
ScriptStruct: AnimSegment                                                                                          - instance: 0x000000002012E700
ScriptStruct: AnimTrack                                                                                            - instance: 0x000000002012E7A0
Class:        AnimComposite                                                                                        - instance: 0x000000000FDC25C0
Class:        AnimCompress                                                                                         - instance: 0x000000000FDC1F00
Class:        AnimCompress_ACLBase                                                                                 - instance: 0x000000000FDC1A80
Class:        AnimCompress_ACL                                                                                     - instance: 0x000000000FDC1CC0
Class:        AnimCompress_Automatic                                                                               - instance: 0x000000000FDC1840
Class:        AnimCompress_BitwiseCompressOnly                                                                     - instance: 0x000000000FDC1600
Class:        AnimCompress_LeastDestructive                                                                        - instance: 0x000000000FDC13C0
Class:        AnimCompress_RemoveLinearKeys                                                                        - instance: 0x000000000FDC0F40
Class:        AnimCompress_PerTrackCompression                                                                     - instance: 0x000000000FDC1180
Class:        AnimCompress_RemoveEverySecondKey                                                                    - instance: 0x000000000FDC0D00
Class:        AnimCompress_RemoveTrivialKeys                                                                       - instance: 0x000000000FDC0AC0
Class:        AnimMetaData                                                                                         - instance: 0x000000000FDC0880
ScriptStruct: AlphaBlend                                                                                           - instance: 0x000000001F59B1E0
ScriptStruct: AnimSyncMarker                                                                                       - instance: 0x000000001F3827C0
ScriptStruct: MarkerSyncData                                                                                       - instance: 0x000000001F382860
ScriptStruct: CompositeSection                                                                                     - instance: 0x000000002012F880
ScriptStruct: SlotAnimationTrack                                                                                   - instance: 0x000000002012F920
ScriptStruct: BranchingPoint                                                                                       - instance: 0x000000002012F9C0
ScriptStruct: BranchingPointMarker                                                                                 - instance: 0x000000002012FA60
ScriptStruct: TimeStretchCurveMarker                                                                               - instance: 0x000000001F2B3B20
ScriptStruct: TimeStretchCurve                                                                                     - instance: 0x000000001F2B3BC0
Class:        AnimMontage                                                                                          - instance: 0x000000000FDC0640
Class:        AnimNotify_PauseClothingSimulation                                                                   - instance: 0x000000000FDC0400
Class:        AnimNotify_PlayParticleEffect                                                                        - instance: 0x000000000FDC01C0
Class:        AnimNotify_PlayParticleEffectWithParams                                                              - instance: 0x000000000FDC9400
Class:        AnimNotify_PlaySound                                                                                 - instance: 0x000000000FDC91C0
Class:        AnimNotify_ResetClothingSimulation                                                                   - instance: 0x000000000FDC8F80
Class:        AnimNotify_ResetDynamics                                                                             - instance: 0x000000000FDC8D40
Class:        AnimNotify_ResumeClothingSimulation                                                                  - instance: 0x000000000FDC8B00
Class:        AnimNotifyState_DisableRootMotion                                                                    - instance: 0x000000000FDC88C0
Class:        AnimNotifyState_EnumName                                                                             - instance: 0x000000000FDC8680
Class:        AnimNotifyState_TimedParticleEffect                                                                  - instance: 0x000000000FDC8440
ScriptStruct: TrackToSkeletonMap                                                                                   - instance: 0x000000001F380740
Class:        AnimSequence                                                                                         - instance: 0x000000000FDC8200
ScriptStruct: AnimSetMeshLinkup                                                                                    - instance: 0x000000001F380560
Class:        AnimSet                                                                                              - instance: 0x000000000FDC7FC0
Class:        AnimSingleNodeInstance                                                                               - instance: 0x000000000FDC7D80
Class:        AnimStateMachineTypes                                                                                - instance: 0x000000000FDC7B40
Class:        ApplicationLifecycleComponent                                                                        - instance: 0x000000000FDC7900
Class:        ArrowComponent                                                                                       - instance: 0x000000000FDC76C0
Class:        AssetExportTask                                                                                      - instance: 0x000000000FDC7480
ScriptStruct: PrimaryAssetRules                                                                                    - instance: 0x000000001F3824A0
ScriptStruct: PrimaryAssetTypeInfo                                                                                 - instance: 0x000000001F382360
ScriptStruct: PrimaryAssetRulesOverride                                                                            - instance: 0x000000001F382540
ScriptStruct: AssetManagerRedirect                                                                                 - instance: 0x000000001F382400
Class:        AssetManagerSettings                                                                                 - instance: 0x000000000FDC7240
ScriptStruct: AssetMapping                                                                                         - instance: 0x000000001F3822C0
Class:        AssetMappingTable                                                                                    - instance: 0x000000000FDC7000
Class:        AsyncActionLoadPrimaryAssetBase                                                                      - instance: 0x000000000FDC6DC0
Class:        AsyncActionLoadPrimaryAsset                                                                          - instance: 0x000000000FDC6B80
Class:        AsyncActionLoadPrimaryAssetClass                                                                     - instance: 0x000000000FDC6940
Class:        AsyncActionLoadPrimaryAssetList                                                                      - instance: 0x000000000FDC6700
Class:        AsyncActionLoadPrimaryAssetClassList                                                                 - instance: 0x000000000FDC64C0
Class:        AsyncActionChangePrimaryAssetBundles                                                                 - instance: 0x000000000FDC6280
Class:        AtmosphericFog                                                                                       - instance: 0x000000000FDC6040
ScriptStruct: AtmospherePrecomputeParameters                                                                       - instance: 0x000000001F382220
Class:        AtmosphericFogComponent                                                                              - instance: 0x000000000FDC5E00
ScriptStruct: AudioQualitySettings                                                                                 - instance: 0x000000001F382040
Class:        AudioSettings                                                                                        - instance: 0x000000000FDC5BC0
ScriptStruct: ReverbSettings                                                                                       - instance: 0x000000001F381F00
ScriptStruct: InteriorSettings                                                                                     - instance: 0x000000001F381FA0
Class:        AudioVolume                                                                                          - instance: 0x000000000FDC5980
ScriptStruct: EditorMapPerformanceTestDefinition                                                                   - instance: 0x000000001F381D20
ScriptStruct: FilePath                                                                                             - instance: 0x000000001F381DC0
ScriptStruct: ImportFactorySettingValues                                                                           - instance: 0x000000001F381960
ScriptStruct: EditorImportWorkflowDefinition                                                                       - instance: 0x000000001F381A00
ScriptStruct: BuildPromotionImportWorkflowSettings                                                                 - instance: 0x000000001F381AA0
ScriptStruct: BuildPromotionOpenAssetSettings                                                                      - instance: 0x000000001F381B40
ScriptStruct: BuildPromotionNewProjectSettings                                                                     - instance: 0x000000001F381BE0
ScriptStruct: BuildPromotionTestSettings                                                                           - instance: 0x000000001F381C80
ScriptStruct: MaterialEditorPromotionSettings                                                                      - instance: 0x000000001F381780
ScriptStruct: ParticleEditorPromotionSettings                                                                      - instance: 0x000000001F381820
ScriptStruct: BlueprintEditorPromotionSettings                                                                     - instance: 0x000000001F3818C0
ScriptStruct: ExternalToolDefinition                                                                               - instance: 0x000000001F381640
ScriptStruct: EditorImportExportTestDefinition                                                                     - instance: 0x000000001F3816E0
ScriptStruct: LaunchOnTestSettings                                                                                 - instance: 0x000000001F381E60
Class:        AutomationTestSettings                                                                               - instance: 0x000000000FDC5740
Class:        AvoidanceManager                                                                                     - instance: 0x000000000FDC5500
Class:        BillboardComponent                                                                                   - instance: 0x000000000FDC52C0
Class:        BlendableInterface                                                                                   - instance: 0x000000000FDC5080
ScriptStruct: BoneNode                                                                                             - instance: 0x000000001F2B0EC0
ScriptStruct: VirtualBone                                                                                          - instance: 0x000000001F2B1280
ScriptStruct: SmartNameContainer                                                                                   - instance: 0x000000001F2B0BA0
ScriptStruct: AnimSlotGroup                                                                                        - instance: 0x000000001F2B11E0
Class:        Skeleton                                                                                             - instance: 0x000000000FDC4C00
ScriptStruct: BlendProfileBoneEntry                                                                                - instance: 0x000000001F381500
Class:        BlendProfile                                                                                         - instance: 0x000000000FDC4E40
Class:        BlockingVolume                                                                                       - instance: 0x000000000FDCDE40
Class:        BlueprintMapLibrary                                                                                  - instance: 0x000000000FDCDC00
Class:        PlatformGameInstance                                                                                 - instance: 0x000000000FDCD9C0
Class:        BlueprintPlatformLibrary                                                                             - instance: 0x000000000FDCD780
Class:        BlueprintSetLibrary                                                                                  - instance: 0x000000000FDCD540
ScriptStruct: KShapeElem                                                                                           - instance: 0x000000002012CF40
ScriptStruct: KSphereElem                                                                                          - instance: 0x000000002012F560
ScriptStruct: KBoxElem                                                                                             - instance: 0x000000002012F600
ScriptStruct: KSphylElem                                                                                           - instance: 0x000000002012F6A0
ScriptStruct: KConvexElem                                                                                          - instance: 0x000000002012F740
ScriptStruct: KTaperedCapsuleElem                                                                                  - instance: 0x000000002012CEA0
ScriptStruct: KAggregateGeom                                                                                       - instance: 0x000000002012CFE0
Class:        BodySetup                                                                                            - instance: 0x000000000FDCD300
ScriptStruct: BranchFilter                                                                                         - instance: 0x000000001EDBE7A0
ScriptStruct: InputBlendPose                                                                                       - instance: 0x000000001EDBE480
Class:        BoneMaskFilter                                                                                       - instance: 0x000000000FDCD0C0
Class:        BookmarkBase                                                                                         - instance: 0x000000000FDCCC40
Class:        BookMark                                                                                             - instance: 0x000000000FDCCE80
Class:        BookMark2D                                                                                           - instance: 0x000000000FDCCA00
Class:        ReflectionCapture                                                                                    - instance: 0x000000000FDCC580
Class:        BoxReflectionCapture                                                                                 - instance: 0x000000000FDCC7C0
Class:        ReflectionCaptureComponent                                                                           - instance: 0x000000000FDCC100
Class:        BoxReflectionCaptureComponent                                                                        - instance: 0x000000000FDCC340
Class:        Breakpoint                                                                                           - instance: 0x000000000FDCBEC0
ScriptStruct: BuilderPoly                                                                                          - instance: 0x000000001F3851A0
Class:        BrushBuilder                                                                                         - instance: 0x000000000FDCBC80
Class:        BrushComponent                                                                                       - instance: 0x000000000FDCBA40
Class:        BrushShape                                                                                           - instance: 0x000000000FDCB800
Class:        ButtonStyleAsset                                                                                     - instance: 0x000000000FDCB5C0
Class:        CameraAnim                                                                                           - instance: 0x000000000FDCB380
Class:        CameraAnimInst                                                                                       - instance: 0x000000000FDCB140
Class:        CameraBlockingVolume                                                                                 - instance: 0x000000000FDCAF00
Class:        CameraModifier                                                                                       - instance: 0x000000000FDCACC0
Class:        CameraModifier_CameraShake                                                                           - instance: 0x000000000FDCAA80
ScriptStruct: FOscillator                                                                                          - instance: 0x000000001F384D40
ScriptStruct: ROscillator                                                                                          - instance: 0x000000001F384CA0
ScriptStruct: VOscillator                                                                                          - instance: 0x000000001F384DE0
Class:        CameraShake                                                                                          - instance: 0x000000000FDCA840
ScriptStruct: CanvasUVTri                                                                                          - instance: 0x000000001F385420
Class:        Canvas                                                                                               - instance: 0x000000000FDCA600
Class:        TextureRenderTarget                                                                                  - instance: 0x000000000FDC9F40
Class:        TextureRenderTarget2D                                                                                - instance: 0x000000000FDCA180
Class:        CanvasRenderTarget2D                                                                                 - instance: 0x000000000FDCA3C0
Class:        CheckBoxStyleAsset                                                                                   - instance: 0x000000000FDC9D00
Class:        ChildActorComponent                                                                                  - instance: 0x000000000FDC9AC0
Class:        ChildConnection                                                                                      - instance: 0x000000000FDC9880
ScriptStruct: DelegateArray                                                                                        - instance: 0x000000001F38BF00
Class:        PlatformInterfaceBase                                                                                - instance: 0x000000000FDCFDC0
Class:        CloudStorageBase                                                                                     - instance: 0x000000000FDC9640
ScriptStruct: CollisionResponseTemplate                                                                            - instance: 0x000000001F384660
ScriptStruct: CustomChannelSetup                                                                                   - instance: 0x000000001F384700
ScriptStruct: CustomProfile                                                                                        - instance: 0x000000001F3847A0
ScriptStruct: Redirector                                                                                           - instance: 0x000000001F387B80
Class:        CollisionProfile                                                                                     - instance: 0x000000000FDCFB80
Class:        DynamicBlueprintBinding                                                                              - instance: 0x000000000FDCF700
ScriptStruct: BlueprintComponentDelegateBinding                                                                    - instance: 0x000000001F3845C0
Class:        ComponentDelegateBinding                                                                             - instance: 0x000000000FDCF940
Class:        CurveTable                                                                                           - instance: 0x000000000FDCF280
Class:        CompositeCurveTable                                                                                  - instance: 0x000000000FDCF4C0
Class:        DataTable                                                                                            - instance: 0x000000000FDCEE00
Class:        CompositeDataTable                                                                                   - instance: 0x000000000FDCF040
Class:        Console                                                                                              - instance: 0x000000000FDCEBC0
Class:        ControlChannel                                                                                       - instance: 0x000000000FDCE980
Class:        ControlRigInterface                                                                                  - instance: 0x000000000FDCE740
Class:        StreamingSettings                                                                                    - instance: 0x000000000FDCE500
Class:        GarbageCollectionSettings                                                                            - instance: 0x000000000FDCE2C0
ScriptStruct: CullDistanceSizePair                                                                                 - instance: 0x000000001F383EE0
Class:        CullDistanceVolume                                                                                   - instance: 0x000000000FDCE080
Class:        CurveBase                                                                                            - instance: 0x000000000FDD49C0
Class:        CurveEdPresetCurve                                                                                   - instance: 0x000000000FDD4780
Class:        CurveFloat                                                                                           - instance: 0x000000000FDD4540
Class:        CurveLinearColor                                                                                     - instance: 0x000000000FDD4300
Class:        Texture2D                                                                                            - instance: 0x000000000FDD3E80
Class:        CurveLinearColorAtlas                                                                                - instance: 0x000000000FDD40C0
ScriptStruct: NamedCurveValue                                                                                      - instance: 0x000000001F3866E0
Class:        CurveSourceInterface                                                                                 - instance: 0x000000000FDD3C40
Class:        CurveVector                                                                                          - instance: 0x000000000FDD3A00
Class:        DamageType                                                                                           - instance: 0x000000000FDD37C0
Class:        PrimaryDataAsset                                                                                     - instance: 0x000000000FDD3580
ScriptStruct: TableRowBase                                                                                         - instance: 0x000000001EDB3D00
Class:        DataTableFunctionLibrary                                                                             - instance: 0x000000000FDD3340
Class:        DebugDrawService                                                                                     - instance: 0x000000000FDD3100
Class:        DecalActor                                                                                           - instance: 0x000000000FDD2EC0
Class:        DecalComponent                                                                                       - instance: 0x000000000FDD2C80
ScriptStruct: DecalTrailPoint                                                                                      - instance: 0x000000001F386320
Class:        DecalTrailComponent                                                                                  - instance: 0x000000000FDD2A40
Class:        DefaultPawn                                                                                          - instance: 0x000000000FDD2800
Class:        PhysicsVolume                                                                                        - instance: 0x000000000FDD2380
Class:        DefaultPhysicsVolume                                                                                 - instance: 0x000000000FDD25C0
Class:        DestructibleInterface                                                                                - instance: 0x000000000FDD2140
ScriptStruct: TextureLODGroup                                                                                      - instance: 0x000000001F2B1B40
Class:        TextureLODSettings                                                                                   - instance: 0x000000000FDD1CC0
Class:        DeviceProfile                                                                                        - instance: 0x000000000FDD1F00
Class:        DeviceProfileManager                                                                                 - instance: 0x000000000FDD1A80
Class:        DialogueSoundWaveProxy                                                                               - instance: 0x000000000FDD1840
Class:        DialogueVoice                                                                                        - instance: 0x000000000FDD1600
ScriptStruct: DialogueContext                                                                                      - instance: 0x000000001F3861E0
ScriptStruct: DialogueContextMapping                                                                               - instance: 0x000000001F386140
Class:        DialogueWave                                                                                         - instance: 0x000000000FDD13C0
Class:        Light                                                                                                - instance: 0x000000000FDD0F40
Class:        DirectionalLight                                                                                     - instance: 0x000000000FDD1180
Class:        LightComponentBase                                                                                   - instance: 0x000000000FDD0880
Class:        LightComponent                                                                                       - instance: 0x000000000FDD0AC0
ScriptStruct: LightmassLightSettings                                                                               - instance: 0x000000001F386FA0
ScriptStruct: LightmassDirectionalLightSettings                                                                    - instance: 0x000000001F386F00
Class:        DirectionalLightComponent                                                                            - instance: 0x000000000FDD0D00
Class:        Distribution                                                                                         - instance: 0x000000000FDD0640
Class:        DistributionFloat                                                                                    - instance: 0x000000000FDD0400
Class:        DistributionFloatConstant                                                                            - instance: 0x000000000FDD01C0
Class:        DistributionFloatConstantCurve                                                                       - instance: 0x000000000FDD9400
Class:        DistributionFloatParameterBase                                                                       - instance: 0x000000000FDD91C0
Class:        DistributionFloatParticleParameter                                                                   - instance: 0x000000000FDD8F80
Class:        DistributionFloatUniform                                                                             - instance: 0x000000000FDD8D40
Class:        DistributionFloatUniformCurve                                                                        - instance: 0x000000000FDD8B00
Class:        DistributionVector                                                                                   - instance: 0x000000000FDD88C0
Class:        DistributionVectorConstant                                                                           - instance: 0x000000000FDD8680
Class:        DistributionVectorConstantCurve                                                                      - instance: 0x000000000FDD8440
Class:        DistributionVectorParameterBase                                                                      - instance: 0x000000000FDD8200
Class:        DistributionVectorParticleParameter                                                                  - instance: 0x000000000FDD7FC0
Class:        DistributionVectorUniform                                                                            - instance: 0x000000000FDD7D80
Class:        DistributionVectorUniformCurve                                                                       - instance: 0x000000000FDD7B40
Class:        DocumentationActor                                                                                   - instance: 0x000000000FDD7900
Class:        DPICustomScalingRule                                                                                 - instance: 0x000000000FDD76C0
Class:        DrawFrustumComponent                                                                                 - instance: 0x000000000FDD7480
Class:        DrawSphereComponent                                                                                  - instance: 0x000000000FDD7240
Class:        EdGraph                                                                                              - instance: 0x000000000FDD7000
Class:        EdGraphNode                                                                                          - instance: 0x000000000FDD6DC0
Class:        EdGraphNode_Documentation                                                                            - instance: 0x000000000FDD6B80
ScriptStruct: EdGraphTerminalType                                                                                  - instance: 0x000000001F383620
ScriptStruct: EdGraphPinType                                                                                       - instance: 0x000000001F3836C0
Class:        EdGraphPin_Deprecated                                                                                - instance: 0x000000000FDD6940
Class:        EdGraphSchema                                                                                        - instance: 0x000000000FDD6700
Class:        Emitter                                                                                              - instance: 0x000000000FDD64C0
Class:        EmitterCameraLensEffectBase                                                                          - instance: 0x000000000FDD6280
Class:        EngineBaseTypes                                                                                      - instance: 0x000000000FDD6040
Class:        EngineHandlerComponentFactory                                                                        - instance: 0x000000000FDD5E00
Class:        LocalMessage                                                                                         - instance: 0x000000000FDD5980
Class:        EngineMessage                                                                                        - instance: 0x000000000FDD5BC0
Class:        EngineTypes                                                                                          - instance: 0x000000000FDD5740
Class:        ExponentialHeightFog                                                                                 - instance: 0x000000000FDD5500
Class:        ExponentialHeightFogComponent                                                                        - instance: 0x000000000FDD52C0
Class:        Exporter                                                                                             - instance: 0x000000000FDD5080
Class:        FloatingPawnMovement                                                                                 - instance: 0x000000000FDD4E40
ScriptStruct: FontCharacter                                                                                        - instance: 0x000000001F386960
ScriptStruct: FontImportOptionsData                                                                                - instance: 0x000000001F3868C0
Class:        Font                                                                                                 - instance: 0x000000000FDD4C00
Class:        FontFace                                                                                             - instance: 0x000000000FDDDE40
Class:        FontImportOptions                                                                                    - instance: 0x000000000FDDDC00
ScriptStruct: ForceFeedbackAttenuationSettings                                                                     - instance: 0x000000001F386820
Class:        ForceFeedbackAttenuation                                                                             - instance: 0x000000000FDDD9C0
Class:        ForceFeedbackComponent                                                                               - instance: 0x000000000FDDD780
ScriptStruct: ForceFeedbackChannelDetails                                                                          - instance: 0x000000001F389020
Class:        ForceFeedbackEffect                                                                                  - instance: 0x000000000FDDD540
Class:        GameEngine                                                                                           - instance: 0x000000000FDDD300
Class:        GameNetworkManager                                                                                   - instance: 0x000000000FDDD0C0
ScriptStruct: PredictProjectilePathParams                                                                          - instance: 0x000000001F388E40
ScriptStruct: PredictProjectilePathPointData                                                                       - instance: 0x000000001F388EE0
ScriptStruct: PredictProjectilePathResult                                                                          - instance: 0x000000001F388F80
Class:        GameplayStatics                                                                                      - instance: 0x000000000FDDCE80
Class:        GameSession                                                                                          - instance: 0x000000000FDDCC40
Class:        SpotLight                                                                                            - instance: 0x000000000FDDC7C0
Class:        GeneratedMeshAreaLight                                                                               - instance: 0x000000000FDDCA00
Class:        HapticFeedbackEffect_Base                                                                            - instance: 0x000000000FDDC580
Class:        HapticFeedbackEffect_Buffer                                                                          - instance: 0x000000000FDDC340
ScriptStruct: HapticFeedbackDetails_Curve                                                                          - instance: 0x000000001F388D00
Class:        HapticFeedbackEffect_Curve                                                                           - instance: 0x000000000FDDC100
Class:        HapticFeedbackEffect_SoundWave                                                                       - instance: 0x000000000FDDBEC0
Class:        HealthSnapshotBlueprintLibrary                                                                       - instance: 0x000000000FDDBC80
ScriptStruct: HLODProxyMesh                                                                                        - instance: 0x000000001F388B20
Class:        HLODProxy                                                                                            - instance: 0x000000000FDDBA40
Class:        AmbisonicsSubmixSettingsBase                                                                         - instance: 0x000000000FDDB800
Class:        SpatializationPluginSourceSettingsBase                                                               - instance: 0x000000000FDDB5C0
Class:        OcclusionPluginSourceSettingsBase                                                                    - instance: 0x000000000FDDB380
Class:        ReverbPluginSourceSettingsBase                                                                       - instance: 0x000000000FDDB140
ScriptStruct: ImportanceTexture                                                                                    - instance: 0x000000001F388A80
Class:        ImportanceSamplingLibrary                                                                            - instance: 0x000000000FDDAF00
Class:        ImportantToggleSettingInterface                                                                      - instance: 0x000000000FDDACC0
Class:        InGameAdManager                                                                                      - instance: 0x000000000FDDAA80
ScriptStruct: ComponentKey                                                                                         - instance: 0x000000001F388940
ScriptStruct: ComponentOverrideRecord                                                                              - instance: 0x000000001F3889E0
Class:        InheritableComponentHandler                                                                          - instance: 0x000000000FDDA840
Class:        InputDelegateBinding                                                                                 - instance: 0x000000000FDDA3C0
ScriptStruct: BlueprintInputDelegateBinding                                                                        - instance: 0x000000001F3888A0
ScriptStruct: BlueprintInputActionDelegateBinding                                                                  - instance: 0x000000001F388800
Class:        InputActionDelegateBinding                                                                           - instance: 0x000000000FDDA600
ScriptStruct: BlueprintInputAxisDelegateBinding                                                                    - instance: 0x000000001F388760
Class:        InputAxisDelegateBinding                                                                             - instance: 0x000000000FDDA180
ScriptStruct: BlueprintInputAxisKeyDelegateBinding                                                                 - instance: 0x000000001F3886C0
Class:        InputAxisKeyDelegateBinding                                                                          - instance: 0x000000000FDD9F40
ScriptStruct: CachedKeyToActionInfo                                                                                - instance: 0x000000001F388620
Class:        InputComponent                                                                                       - instance: 0x000000000FDD9D00
ScriptStruct: BlueprintInputKeyDelegateBinding                                                                     - instance: 0x000000001F388580
Class:        InputKeyDelegateBinding                                                                              - instance: 0x000000000FDD9AC0
ScriptStruct: InputAxisProperties                                                                                  - instance: 0x000000001F38E2A0
ScriptStruct: InputAxisConfigEntry                                                                                 - instance: 0x000000001F38BA00
ScriptStruct: InputActionKeyMapping                                                                                - instance: 0x000000001F38BAA0
ScriptStruct: InputAxisKeyMapping                                                                                  - instance: 0x000000001F38BB40
Class:        InputSettings                                                                                        - instance: 0x000000000FDD9880
ScriptStruct: BlueprintInputTouchDelegateBinding                                                                   - instance: 0x000000001F3884E0
Class:        InputTouchDelegateBinding                                                                            - instance: 0x000000000FDD9640
Class:        InputVectorAxisDelegateBinding                                                                       - instance: 0x000000000FDDFDC0
Class:        Interface_AssetUserData                                                                              - instance: 0x000000000FDDFB80
Class:        Interface_CollisionDataProvider                                                                      - instance: 0x000000000FDDF940
Class:        Interface_PostProcessVolume                                                                          - instance: 0x000000000FDDF700
Class:        Interface_PreviewMeshProvider                                                                        - instance: 0x000000000FDDF4C0
ScriptStruct: CurveEdEntry                                                                                         - instance: 0x000000001F387FE0
ScriptStruct: CurveEdTab                                                                                           - instance: 0x000000001F388080
Class:        InterpCurveEdSetup                                                                                   - instance: 0x000000000FDDF280
Class:        InterpData                                                                                           - instance: 0x000000000FDDF040
Class:        InterpFilter                                                                                         - instance: 0x000000000FDDEE00
Class:        InterpFilter_Classes                                                                                 - instance: 0x000000000FDDEBC0
Class:        InterpFilter_Custom                                                                                  - instance: 0x000000000FDDE980
Class:        InterpGroup                                                                                          - instance: 0x000000000FDDE740
Class:        InterpGroupCamera                                                                                    - instance: 0x000000000FDDE500
Class:        InterpGroupDirector                                                                                  - instance: 0x000000000FDDE2C0
Class:        InterpGroupInst                                                                                      - instance: 0x000000000FDDE080
Class:        InterpGroupInstCamera                                                                                - instance: 0x000000000FDE49C0
Class:        InterpGroupInstDirector                                                                              - instance: 0x000000000FDE4780
ScriptStruct: InterpControlPoint                                                                                   - instance: 0x000000001F59C360
Class:        InterpToMovementComponent                                                                            - instance: 0x000000000FDE4540
ScriptStruct: AnimControlTrackKey                                                                                  - instance: 0x000000001F387CC0
Class:        InterpTrackAnimControl                                                                               - instance: 0x000000000FDE4300
Class:        InterpTrackAudioMaster                                                                               - instance: 0x000000000FDE40C0
ScriptStruct: BoolTrackKey                                                                                         - instance: 0x000000001F387C20
Class:        InterpTrackBoolProp                                                                                  - instance: 0x000000000FDE3E80
Class:        InterpTrackColorProp                                                                                 - instance: 0x000000000FDE3C40
Class:        InterpTrackColorScale                                                                                - instance: 0x000000000FDE3A00
ScriptStruct: DirectorTrackCut                                                                                     - instance: 0x000000001F38A4C0
Class:        InterpTrackDirector                                                                                  - instance: 0x000000000FDE37C0
ScriptStruct: EventTrackKey                                                                                        - instance: 0x000000001F38A420
Class:        InterpTrackEvent                                                                                     - instance: 0x000000000FDE3580
